:020000040800F2
:10000000C8050020390100086717000863170008B9
:1000100065170008E1010008711F000800000000DA
:10002000000000000000000000000000ED170008C4
:10003000270200080000000069170008EF170008F9
:100040005301000853010008530100085301000840
:100050005301000853010008530100085301000830
:100060005301000853010008530100085301000820
:100070005301000853010008530100085301000810
:10008000E5010008F10100085301000853010008D0
:1000900053010008530100085301000853010008F0
:1000A00053010008530100085301000853010008E0
:1000B00053010008530100085301000853010008D0
:1000C00053010008530100085301000853010008C0
:1000D0005301000853010008591F0008530100088C
:1000E000530100085301000853010008CD1800080F
:1000F00053010008000000005301000853010008EC
:10010000530100085301000853010008530100087F
:1001100053010008530100085301000800000000CB
:1001200053010008DFF80CD000F048F80048004701
:10013000D9210008C8050020064880470648004726
:10014000FEE7FEE7FEE7FEE7FEE7FEE7FEE7FEE787
:10015000FEE7FEE77D18000825010008D2B201E0A5
:1001600000F8012B491EFBD270470022F6E710B5BC
:1001700013460A4604461946FFF7F0FF204610BD15
:10018000421C10F8011B0029FBD1801A704730B5C2
:100190000B46014600202022012409E021FA02F545
:1001A0009D4205D303FA02F5491B04FA02F52844DF
:1001B000151EA2F10102F1DC30BD0000064C074D16
:1001C00006E0E06840F0010394E807009847103427
:1001D000AC42F6D3FFF7AAFFDC220008FC2200089D
:1001E000FEE700000148406B00F03AB878000020BC
:1001F0000148006B00F034B87800002030B590F86A
:1002000040500124AC40C56B6C6004686360436877
:10021000102B036803D099600068C26030BD9A60FB
:100220000068C16030BD70470B4800B5016887B0F9
:1002300041F0010101600068694600F0010005908D
:10024000E0200090012001900290022003900348DA
:1002500000F0D4F807B000BD1C3802400000024096
:10026000F0B4C16B0D6801680C68066C042202FAD8
:1002700006F32B420FD063070DD50B689B0603D402
:100280000B6823F004030B6090F840108A40C16BA8
:100290004A60C16A1BE0022303FA06F72F424FF0BF
:1002A000000C4FF0010216D0A70714D50C68A40665
:1002B00005D40C6824F00A040C6080F8212090F822
:1002C00040108B40C16B4B6080F820C0816A0029D0
:1002D00018D0F0BC08470823B3402B4212D02307A4
:1002E00010D50B6823F00E030B6090F84010C36B21
:1002F00002FA01F15960826380F8212080F820C061
:10030000016BE4E7F0BC704730B560B11C4A03688C
:100310001421934209D21B4A1A44B2FBF1F189001D
:10032000016419490AE0012030BD154A52421A44BD
:10033000B2FBF1F18900016411490839C16302215E
:1003400080F821101A6843F6F0718A43F0E901142D
:100350002143D0E902452C432143046921434469E8
:100360002143846921431143196000214162816264
:10037000C16201634163012242770177084630BDC3
:1003800008640240F89FFDBF0060024070B504465B
:1003900090F82000002501280CD0012084F82000CE
:1003A00094F821600020012E06D084F82000022558
:1003B000284670BD022070BD022684F82160A0632B
:1003C0002068066826F0010606602046FFF716FF43
:1003D000E06A00282068016802D041F00E0106E0C2
:1003E00021F0040101602068016841F00A01016008
:1003F0002068016841F001010160D9E72DE9F84F5B
:10040000DFF880B100234FF0010C4FF0030A4FF0EA
:100410000F090BF1040EAEE00CFA03F614EA060223
:1004200070D04C68022C01D0122C11D1DC0800EBEA
:1004300084073C6A5D07ED0E09FA05F824EA080412
:10044000D1F8108008FA05F848EA0408C7F82080B7
:1004500007685D0091F804800AFA05F408F00308C3
:10046000A74308FA05F848EA0708C0F800804F6873
:10047000012F05D0022F03D0112F01D0122F11D13F
:100480008768D1F80C80A74308FA05F848EA0708FE
:10049000C0F808804768B7430E79C6F300169E403F
:1004A0003E434660C668A6438C68AC403443C46093
:1004B0004C68E4005ED5344C256845F001052560A4
:1004C000246823F0030504F0010400942F4C2E1936
:1004D000B4689D072F0F09FA07F5AC432C4DA842CD
:1004E00001D100251FE02B4DA84201D101251AE0C2
:1004F000294DA84201D1022515E0284DA84202D17C
:10050000032510E036E0264DA84201D104250AE07B
:10051000244DA84201D1052505E0234DA84201D173
:10052000062500E00725BD402543B560DBF8004007
:100530005D464E689443F60300D514432C60DEF804
:10054000004075464E689443B60300D514432C60B2
:100550000C4D08352C684E689443F60200D51443C0
:100560002C60084D0C352C684E689443B60200D5BB
:1005700014432C605B1C0A681446DA407FF44CAFCD
:10058000BDE8F88F0004014020380240000001401F
:10059000000002400004024000080240000C02403B
:1005A0000010024000140240001802400AB18161AC
:1005B00070470904FBE7000001480068704700002D
:1005C0000C00002002480168491C016070470000CF
:1005D0000C000020094810B5016841F004010160D9
:1005E000016841F002010160032000F059F80F207A
:1005F00000F006F800F018F8002010BD003C0240A2
:1006000010B5044607484FF47A710068B0FBF1F06A
:1006100000F066FD00222146501E00F021F8002067
:1006200010BD0000000000207047002809DB00F02A
:100630001F02012191404009800000F1E020C0F834
:1006400080127047002809DB00F01F020121914051
:100650004009800000F1E020C0F800117047000060
:10066000F0B40E4B1B680C46C3F30223C3F107051D
:10067000042D00D90425191D072901D2002300E00B
:10068000DB1E012606FA05F1491E214099409E40D5
:10069000761E16403143F0BC01F090BC0CED00E03A
:1006A000064900F0070208684FF6FF03184040EAC9
:1006B0000220034A10430860704700000CED00E080
:1006C0000000FA052DE9F047DFF8BC8105460E462B
:1006D000D8F8000000F00100B04214D2012E05D17C
:1006E000D8F8001041F00401C8F80010D8F8001044
:1006F00021F001013143C8F80010D8F8000000F0E3
:100700000100B04271D12878604C800705D520687F
:10071000A96820F0F000084320602878C00771D055
:100720005A4A5A4B69680120083A2C33022910D0E2
:1007300003292ED001292FD05FEA402797FAA7FC82
:10074000BCFA8CFC4CF0200C5FEA5C1C04D01268F4
:1007500003E04FF40037F1E71A6897FAA7F3B3FA0A
:1007600083F303F01F039840024262D0206820F018
:10077000030008432060FFF71FFF6968074641F246
:100780008830022910D003291CD00129814626D0A7
:1007900034E04FF00077D1E70227CFE7FFF70CFFF7
:1007A000C11B494501D926E081462068C0F381007C
:1007B0000228F3D126E000BFFFF7FEFEC11B49452A
:1007C00001D918E081462068C0F381000328F3D1E5
:1007D00018E000BFFFF7F0FEC11B49450BD82068A9
:1007E000C0F381000128F5D10CE022E0FFF7E4FE20
:1007F000C11B494502D90320BDE8F087206810F0ED
:100800000C0FF3D1D8F80010404601F00101B142BD
:1008100011D9012E03D1016841F004010160016882
:1008200021F0010131430160006800F00100B04295
:1008300001D00120E0E72878400705D52068E96865
:1008400020F4E060084320602878000706D520687F
:10085000296920F4605040EAC100206000F052F89D
:100860002168F02292FAA2F201F0F001B2FA82F2CB
:10087000D140074A515CC840064908600F20FFF785
:10088000BFFE0020B8E70000003C024008380240EC
:100890007522000800000020014800687047000031
:1008A0000000002008480949006809684FF4E06228
:1008B00092FAA2F201F4E061B2FA82F2D140044A63
:1008C000515CC8407047000000000020083802401A
:1008D0008522000808480949006809684FF46052F9
:1008E00092FAA2F201F46051B2FA82F2D140044AC3
:1008F000515CC840704700000000002008380240EA
:10090000852200081E4A116801F00C00042813D04B
:10091000082813D00C2813D0101F006800F4604181
:100920004FF4604090FAA0F0B0FA80F0C1404FF46C
:100930000040491C88407047124870471248704771
:100940004FF4701393FAA3F301F47010B3FA83F326
:10095000D8400E4B01F440011268185C4FF440037C
:1009600093FAA3F3B3FA83F3D940491CD20301D518
:10097000054A00E0034A5043B0FBF1F07047000025
:10098000083802400024F40000127A006C220008AB
:100990002DE9F84F07460078FB4EFC4DC0074FF09D
:1009A000010428D0F848083001684FF40038C1F33A
:1009B0008101022907D00168C1F3810103291BD1FC
:1009C0000068C00318D598FAA8F0B0FA80F040F09B
:1009D0002000400901D0306800E0286898FAA8F1AA
:1009E000B1FA81F101F01F0104FA01F108425CD073
:1009F000786800287BD058E0786801280AD008B1D0
:100A0000052811D0306820F480303060306820F440
:100A1000802002E0306840F480303060786828B38D
:100A2000FFF7CAFD81460BE0306840F4802030605B
:100A3000F0E700BFFFF7C0FDA0EB0900642872D803
:100A400098FAA8F0B0FA80F040F02000400901D0F8
:100A5000306800E0286898FAA8F1B1FA81F101F055
:100A60001F0104FA01F10842E4D01EE0FFF7A4FDE3
:100A7000814605E0FFF7A0FDA0EB09006428DED861
:100A800098FAA8F0B0FA80F040F02000400901D0B8
:100A9000306800E0286898FAA8F1B1FA81F101F015
:100AA0001F0104FA01F10842E4D13878DFF8E0824E
:100AB00080074FF0000B4FF002095FD5B2480830B5
:100AC0000168C1F38101012907D00168C1F38101E7
:100AD00003291CD10068C00319D499FAA9F0B0FA0F
:100AE00080F040F02000400902D0306801E086E04C
:100AF000286899FAA9F1B1FA81F101F01F0104FA0D
:100B000001F108422BD0F868012878D127E0F86875
:100B1000A8B394FAA4F0B0FA80F048F82040FFF7A8
:100B20004BFD824606E066E1FFF746FDA0EB0A00BA
:100B3000022884D899FAA9F1B1FA81F141F0200193
:100B4000490901D0316800E0296899FAA9F0B0FAA2
:100B500080F000F01F0004FA00F00142E4D08A485F
:100B6000001D01684FF4F85393FAA3F33A69B3FAFE
:100B700083F321F4F8519A401143016025E0FFE727
:100B800094FAA4F1B1FA81F148F821B0FFF714FD0D
:100B9000824605E0FFF710FDA0EB0A000228C8D846
:100BA00099FAA9F0B0FA80F040F02000400901D095
:100BB000306800E0286899FAA9F1B1FA81F101F0F2
:100BC0001F0104FA01F10842E4D138784FF4007AA9
:100BD000C0067CD56C480830006810F00C0F0FD0B0
:100BE000B9694FF48070002972D090FAA0F0B0FA81
:100BF00080F048F82040FFF7DFFC00907EE087E0BF
:100C00009AFAAAF0B0FA80F040F02000400901D032
:100C1000306800E028689AFAAAF1B1FA81F101F08F
:100C20001F0104FA01F1084202D0B86900286FD010
:100C30005548396A001D006800F4604081421AD9A5
:100C4000084600F093FD002862D14F48001D01685E
:100C50003A6A21F460411143016001684FF07F431B
:100C600093FAA3F3FA69B3FA83F321F07F419A4030
:100C70001143016018E04448001D026822F46042FC
:100C80000A43026001684FF07F4393FAA3F3FA69C5
:100C9000B3FA83F321F07F419A4011430160386A2F
:100CA00000F064FD0028CFD14FF4604191FAA1F12A
:100CB000386AB1FA81F1C8404FF40041401C8140CC
:100CC000314808300068F02200F0F00001E070E0E8
:100CD00040E092FAA2F2B2FA82F2D0402D4A105CC1
:100CE000C1402D4801600F20FFF78AFC61E000BF82
:100CF000FFF762FC0099401A02287CD89AFAAAF001
:100D0000B0FA80F040F02000400902D0306801E0E5
:100D1000BCE128689AFAAAF1B1FA81F101F01F0149
:100D200004FA01F10842E3D01748001D01683A6A4D
:100D300021F460411143016001684FF07F4393FA51
:100D4000A3F3FA69B3FA83F321F07F419A40114388
:100D500001602EE090FAA0F0B0FA80F048F820B0E0
:100D6000FFF72AFC009005E0FFF726FC0099401AE7
:100D70000228C2D89AFAAAF0B0FA80F040F0200017
:100D800040090BD030680AE0003802403438024095
:100D900000004742752200080000002028689AFAE7
:100DA000AAF1B1FA81F101F01F0104FA01F1084240
:100DB000DAD13878000753D5786948B394FAA4F0AB
:100DC000B0FA80F008EB8000C0F88046FFF7F4FB33
:100DD000009005E0FFF7F0FB0099401A02288CD83C
:100DE00099FAA9F0B0FA80F040F04000B4EB501F3F
:100DF00002D1306801E08EE0286899FAA9F1B1FAD1
:100E000081F101F01F0104FA01F21042E2D027E063
:100E100094FAA4F1B1FA81F108EB8101C1F880B62E
:100E2000FFF7CAFB009005E0FFF7C6FB0099401AE8
:100E3000022870D899FAA9F0B0FA80F040F040008A
:100E4000B4EB501F01D1306800E0286899FAA9F18D
:100E5000B1FA81F101F01F0104FA01F21042E3D16D
:100E6000387840077BD59B484FF000090068C000E8
:100E70000AD49848016841F08051016000684FF041
:100E8000010900F08050009093480168C90511D411
:100E9000016841F480710160FFF78EFB009005E06E
:100EA000FFF78AFB0099401A642834D88A48006802
:100EB000C005F5D5B86801280AD008B1052811D0B9
:100EC000286820F480702860286820F4806002E0A0
:100ED000286840F480702860B86848B3FFF76CFB5E
:100EE00000900DE0286840F480602860F0E700BFC3
:100EF000FFF762FB0099411A41F2883081420AD81B
:100F00009AFAAAF0B0FA80F040F04000B4EB501F1B
:100F100002D1306801E095E028689AFAAAF1B1FAA6
:100F200081F101F01F0104FA01F21042E0D022E049
:100F3000FFF742FB009007E0FFF73EFB0099411AE4
:100F400041F2883081427DD89AFAAAF0B0FA80F056
:100F500040F04000B4EB501F02D1306801E012E0D5
:100F600028689AFAAAF1B1FA81F101F01F0104FA96
:100F700001F21042E0D1B9F1000F04D055480168E8
:100F800021F080510160786AE8B3DFF84891A9F157
:100F90001C09D9F80010C1F38101032976D0022879
:100FA0004FF080714FF0007A58460BD091FAA1F1C2
:100FB000B1FA81F148F82100FFF7FEFAB046074682
:100FC00056466DE04FF0807191FAA1F1B1FA81F1CE
:100FD0008A0042495050FFF7EFFAB3468046564622
:100FE00006E000BFFFF7E8FAA0EB0800022854D89B
:100FF00096FAA6F0B0FA80F040F02000400903D045
:10100000DBF8000001E061E0286896FAA6F1B1FA89
:1010100081F101F01F0104FA01F10842E2D1D7E9A0
:101020000A103A6BD9F80030014323F47D031A43C8
:101030001143C9F800104FF0807090FAA0F0B0FA98
:1010400080F000E029E0810024480C50FFF7B4FA5A
:10105000074604E0FFF7B0FAC01B02281DD896FA35
:10106000A6F0B0FA80F040F02000400902D0DBF892
:10107000000000E0286896FAA6F1B1FA81F101F0CB
:101080001F0104FA01F10842E4D01FE020E000BF94
:10109000FFF792FAC01B022802D90320BDE8F88F9F
:1010A00096FAA6F0B0FA80F040F02000400902D095
:1010B000D8F8000000E0286896FAA6F1B1FA81F1AC
:1010C00001F01F0104FA01F10842E1D10020E5E737
:1010D0000120E3E72438024000700040000047424E
:1010E00010B5401EB0F1807F01D3012010BD4FF03C
:1010F000E02460610F21601700F060FF0020A06114
:1011000007202061002010BD10B5040003D094F822
:10111000350010B107E0012010BD002084F8340034
:10112000204600F00DF8022084F83500211D2068CB
:1011300000F0D2FB012084F83500002010BD000033
:10114000094808B5016841F01001016000680022FB
:1011500000F01000009003212B20FFF781FABDE87A
:1011600008402B20FFF76EBA243802400168CA6895
:1011700042F00102CA600068016841F001010160AB
:1011800000207047704770B50446006801694FF051
:101190000005C943890715D4C168C943890711D41B
:1011A000E91E0161012020752068806980072046C2
:1011B00002D0FFF7E7FF04E000F078F8204600F0E7
:1011C00076F8257520680169C943490717D4C168B5
:1011D000C943490713D46FF004010161022020754F
:1011E0002068806910F4407F204602D0FFF7CAFFD4
:1011F00004E000F05BF8204600F059F825752068FF
:101200000169C943090716D4C168C943090712D443
:101210006FF008010161042020752068C069800713
:10122000204602D0FFF7AEFF04E000F03FF8204672
:1012300000F03DF8257520680169C943C90617D437
:10124000C168C943C90613D46FF0100101610820B9
:1012500020752068C06910F4407F204602D0FFF757
:1012600091FF04E000F022F8204600F020F82575F8
:1012700020680169C943C90708D1C168C943C907C2
:1012800004D1891E0161204600F012F8206801692E
:10129000C943490609D4C168C943490605D46FF05A
:1012A00040010161204600F00FF870BD70477047A3
:1012B00004498888421C8A80B0F57A7F01D30020D7
:1012C00088807047040000207047704738B5044696
:1012D00000680168C26811F0010F02F4807204D046
:1012E0001AB1E16B41F00101E1630168C1F3400211
:1012F000416901F0010122B119B1E26B42F004022F
:10130000E2630268C2F3800222B119B1E26B42F0DB
:101310000202E2630268C2F3C00222B119B1E16BBA
:1013200041F00801E1630168C068C1F3401100F0B9
:10133000200019B110B1204600F0EEFB20680168D2
:10134000C068C1F3C01100F0800019B110B120468F
:1013500000F086FD21680868CA68C0F3801002F0BA
:101360004002012570B16AB1CA68204622F04002ED
:10137000CA6094F83910322911D080F8395000BF72
:1013800000F0D8F9E06B002808D0206801684068B8
:10139000009084F839502046FFF797FF38BD22218E
:1013A00080F83910ECE770B5040004D094F83900E7
:1013B000002510B106E0012070BD84F838502046A9
:1013C00000F020F8022084F839002068C16821F478
:1013D0000051C160204600F0F3FB2068016921F450
:1013E000904101612068416921F02A014161206832
:1013F000C16841F40051C160E563012084F83900FF
:10140000002070BDF0B506463B4887B0016841F04A
:1014100001010160016801F001010591016841F0DD
:1014200001010160016801F00101059132490831B3
:101430000A6842F400320A60096801F4003105913B
:10144000016841F0807101600068072400F080703D
:1014500005900420009002200190012002900320BA
:10146000CDE90304254D69462846FEF7C7FF08204D
:101470000090694604942846FEF7C0FF214C20489E
:10148000002501C410208027A1C41E4844F810592B
:101490006561A561E561FEF737FF34636662194C4B
:1014A000174844341438C4E90005C4E90257202021
:1014B0002561C4E905500002E0612046FEF724FFE3
:1014C00074630122002111206662FFF7C9F8112020
:1014D000FFF7B8F8002211461020FFF7C1F81020DE
:1014E000FFF7B0F8002211462620FFF7B9F82620B2
:1014F000FFF7A8F807B0F0BD1C380240000002401A
:1015000080600240B800002070B5044690F83900B1
:10151000012801D0122832D169B362B394F838009F
:1015200001282CD0012084F83800A162A285002572
:10153000E56394F8390012281FD0222084F839007E
:10154000636B10489862636B0F48D862636B0F48F7
:10155000186308461346666B216802463046091D2B
:10156000FEF714FF2068416941F04001416184F8B1
:101570003850002070BD012070BD3220DEE702200F
:1015800070BD0000A11A0008D71A0008811A0008CF
:1015900010B50D4C012220212046FFF707F80B491A
:1015A0000B4B8A7808789854521CD0B28870142853
:1015B00003D3002088700120487020460022BDE837
:1015C00010402021FEF7F2BF00000240040000207E
:1015D00014000020704700002DE9F047044690F801
:1015E000390099460D46012801D0222858D12DB343
:1015F00022B394F83800012852D0012684F83860CC
:101600000027E76394F8390022281AD05FF012000F
:1016100084F83900A284E2844FF48058E08C4B4671
:10162000401EE084A0684FF0000240454FF080016A
:10163000204613D100F047FC08BB04E00120BDE8C0
:10164000F0873220E4E728882168C0F3080048606A
:10165000206908B16D1C08E0AD1C06E000F033FC09
:1016600068B9216815F8010B4860E08C0028D5D1D5
:101670004B4600224021204600F025FC08B1032003
:10168000DDE794F83900322806D084F8396000BFCD
:1016900084F838700020D2E7222084F83900F7E778
:1016A0000220CCE770B5044690F83900012801D03B
:1016B000222836D181B37AB394F83800012830D08B
:1016C000012084F838002162A284E2840025E563C9
:1016D00094F83900222822D05FF0120084F83900F3
:1016E000236B11489862236B1048D862236B104813
:1016F000186326681346321D206BFEF747FE2168EB
:101700006FF0400008602068416941F0800141614C
:1017100084F83850002070BDFFE70120FBE732203D
:10172000DCE70220F7E70000E11A00080F1B0008C1
:10173000811A0008084910B5012081F83900074CCA
:10174000024640212046FEF731FF20460022BDE838
:1017500010404021FEF72ABF780000200000024020
:101760007047FEE7FEE770477047000038B51C4938
:10177000002309681B4A11F0F00F23D118491C31CE
:101780000C68E500184C03D5216801F4C0540EE044
:101790000D6845F080550D600D6805F08055009589
:1017A00024680D6804F4C05425F080550D60B4F52C
:1017B000C05F07D1B0F5404F04D11068012340F05D
:1017C00004001060106820F00100184310601068D9
:1017D00000F00100984201D0012038BD002038BD42
:1017E00008380240003C0240007000407047FEF79D
:1017F000E9BE000010B594B014210DA8FEF7B5FCA9
:1018000034216846FEF7B1FC01210391022010212A
:10181000009000240491CDE9090480040B9000019C
:101820000C906846FFF7B4F800B1FEE71148016874
:1018300041F080510160006800F0805012900E4825
:10184000016821F4C05141F4006101604168C9435D
:10185000C906FBD50F200D900320CDE90E0410948E
:1018600001210DA81194FEF72DFF002800D0FEE7FE
:1018700014B010BD24380240007000400F480168C9
:1018800041F4807101600D4908310A680C4B1A401F
:101890000A6002680B4B1A400260026822F4802240
:1018A0000260086820F47D0008600020091D0860BF
:1018B00005494FF0006008607047000000380240A2
:1018C0000CC0FF88FEFFFEEE08ED00E00148FFF7C8
:1018D0005ABC000040000020F0B502684FF0804C78
:1018E000164B174C174D184E604507D0984205D03F
:1018F000A04203D0A84201D0B04205D122F0700727
:101900004A683A4360450DD098420BD0A04209D0B6
:10191000A84207D0B04205D00C4B984202D00C4BE5
:10192000984203D122F44073CA681A4302608A685D
:10193000C2620968816201214161F0BD000400407A
:1019400000080040000C004000080140000C01406D
:10195000001001400C4810B50A49016040F69F7123
:10196000C16007214160002101618160FFF7CCFB6C
:1019700000B1FEE70448FFF7F9FB002800D0FEE7BE
:1019800010BD0000001000404000002010B51C48B1
:101990001A490C2201604FF4E1314160002181605D
:1019A000C1600161C0E90521C161FFF7FCFC00B124
:1019B000FEE7144800F0DEFAFEF7A4FF014612A08D
:1019C00000F0D8FAFEF768FF014617A000F0D2FA3F
:1019D000FEF768FF01461BA000F0CCFAFEF77AFF85
:1019E00001461FA000F0C6FA012224490448FFF76F
:1019F0008BFD002800D0FEE710BD00000044004031
:101A0000780000209022000848414C5F5243435F19
:101A1000476574537973436C6F636B4672657120CD
:101A20003D2025640D0A000048414C5F5243435F4E
:101A300047657448434C4B46726571203D202564D0
:101A40000D0A000048414C5F5243435F47657450A4
:101A5000434C4B3146726571203D2025640D0A00D0
:101A600048414C5F5243435F47657450434C4B328F
:101A700046726571203D2025640D0A000400002097
:101A800010B5406A0021C185C184012180F8391058
:101A9000C16B41F01001C163FFF717FC10BD0000DE
:101AA00010B50146406A0968096889060ED400210C
:101AB000C18501684A6922F040024A6190F83910F4
:101AC000322906D05FF0010180F83910FFF760FD80
:101AD00010BD1221F8E710B5406AFFF77BFD10BD7D
:101AE00010B50146406A0968096889060CD40021CE
:101AF000C18401684A6922F080024A610068C168B5
:101B000041F04001C16010BDFFF714FE10BD10B5DB
:101B1000406AFFF725FE10BD10B590F83910222954
:101B200003D0322901D0022010BD8168B1F5805F59
:101B300011D00169002901681FD0496801F07F03B5
:101B4000816A4A1C82620B70C18D491E0904090C0E
:101B5000C18518D030E00269816A002A02685268A3
:101B600005D0D2B20A80816A491C8162ECE7C2F3D7
:101B700008020A80816A891CF7E74A68816A4B1C5F
:101B800083620A70E0E70168CA6822F02002CA6036
:101B900090F83910322911D00168CA6822F4807295
:101BA000CA6001684A6922F001024A615FF00101DE
:101BB00080F83910FFF7ECFC002010BD1221F7E788
:101BC0002DE9F041044600680169E26821F44051C2
:101BD000114301612169A068E26908436169114309
:101BE00008432168CA6849F20C639A430243CA60F9
:101BF00020684169A26921F4407111434161E169A2
:101C00006425B1F5004F954821684FF032083DD06A
:101C100081427AD1FEF75EFE00EBC00101EB0010BD
:101C200061688900B0FBF1F6FEF754FE00EBC001DD
:101C300001EB001061688900B0FBF1F0B0FBF5F03A
:101C40006FF01801484306EB800108EB0110B0FB70
:101C5000F5F000F0F006FEF73DFE00EBC00101EBF1
:101C6000001061688900B0FBF1F0B0FBF5F006EB05
:101C70000016FEF72FFE00EBC00101EB00106168BB
:101C80008900B0FBF1F7FEF725FED0E081423DD19F
:101C9000FEF720FE00EBC00101EB00106168490077
:101CA000B0FBF1F0B0FBF5F00601FEF713FE00EB20
:101CB000C00101EB001061684900B0FBF1F7FEF7CD
:101CC00009FE00EBC00101EB001061684900B0FBA8
:101CD000F1F0B0FBF5F06FF01801484307EB80011D
:101CE00008EBC100B0FBF5F000F0F80006EB400691
:101CF000FEF7F0FD00EBC00101EB00106168490048
:101D0000B0FBF1F7FEF7E6FD3CE055E0FEF7CAFD5B
:101D100000EBC00101EB001061684900B0FBF1F07D
:101D2000B0FBF5F00601FEF7BDFD00EBC00101EBD5
:101D3000001061684900B0FBF1F7FEF7B3FD00EB5E
:101D4000C00101EB001061684900B0FBF1F0B0FB8D
:101D5000F5F06FF01801484307EB800108EBC10074
:101D6000B0FBF5F000F0F80006EB4006FEF79AFD38
:101D700000EBC00101EB001061684900B0FBF1F716
:101D8000FEF790FD00EBC00101EB00106168490017
:101D9000B0FBF1F0B0FBF5F06FF01801484307EB32
:101DA000800108EBC100B0FBF5F000F007002168EE
:101DB00030448860BDE8F081FEF774FD00EBC0019F
:101DC00001EB001061688900B0FBF1F6FEF76AFDD7
:101DD00000EBC00101EB001061688900B0FBF1F07D
:101DE000B0FBF5F06FF01801484306EB800108EBFB
:101DF0000110B0FBF5F000F0F006FEF753FD00EB2C
:101E0000C00101EB001061688900B0FBF1F0B0FB8C
:101E1000F5F006EB0016FEF745FD00EBC00101EB07
:101E2000001061688900B0FBF1F7FEF73BFD00EBA5
:101E3000C00101EB001061688900B0FBF1F0B0FB5C
:101E4000F5F06FF01801484307EB800108EB011033
:101E5000B0FBF5F000F00F00A9E7000000380140EA
:101E600090F83910122903D0322901D0022070478E
:101E70008168B1F5805F016A0BD04A1C026202687A
:101E800009785160C18C491E0904090CC1840ED027
:101E900017E009880268C1F308015160016900294F
:101EA000016A02D0491C0162ECE7891CFBE701686A
:101EB000CA6822F08002CA600068C16841F040012F
:101EC000C160002070472DE9F0471D4690460E4640
:101ED0000446FEF771FB07465FEA08004FF0000971
:101EE0004FF0010808D030E0681C05D095B1FEF72E
:101EF00063FBC01BA8420DD82068006836EA0000CA
:101F0000F2D127E0681C20D025B1FEF755FBC01B9D
:101F1000A8421AD92068C16821F08001C1602068F8
:101F2000C16821F02001C1602068C16821F480717E
:101F3000C1602068416921F00101416184F8398064
:101F400084F838900320BDE8F0872068006836EAFE
:101F50000000D7D00020F6E710B52620FEF765FB7D
:101F6000BDE810400148FFF7B1B90000780000203B
:101F7000FEE700000FB4054B10B503A9044A029810
:101F800000F03CF810BC5DF814FB0000C121000813
:101F9000100000200FB4084B10B504A902AA039842
:101FA00000F02CF8044602A9002000F003F92046B6
:101FB00010BC5DF814FB0000B52100080907090EEC
:101FC000002804DB00F1E02080F80014704700F0E6
:101FD0000F0000F1E02080F8141D704702E008C8EF
:101FE000121F08C1002AFAD170477047002001E093
:101FF00001C1121F002AFBD1704700002DE9FF4FDD
:102000008BB09A460F460546002606E025280BD0E1
:1020100052460D9990476D1C761C28780028F5D102
:102020000FB03046BDE8F08F0024A0460122604981
:1020300000E0044315F8013F203B02FA03F0084298
:10204000F7D128782E2817D115F8010F44F0040491
:102050002A280ED06FF02F022878A0F1300109292C
:102060000AD808EB880102EB410100EB01086D1C66
:10207000F2E757F8048B6D1C287869283ED006DCFF
:102080000028CDD063280BD0642804D136E0732813
:1020900010D075284BD052460D999047761C85E09C
:1020A00017F8040B8DF8000000208DF80100E946B8
:1020B000012003E057F8049B4FF0FF3061074FF019
:1020C000000401D40AE0641C44450DDA8442FADBC2
:1020D00019F804100029F6D106E0641C8442FCDBE8
:1020E00019F804100029F8D1264404E019F8010B6E
:1020F00052460D999047641EF8D257E001CF4FF039
:102100000A0B002802DA40422D2102E0210504D505
:102110002B218DF82410012103E0E10705D02021B7
:10212000F7E70DF1200908910CE00021F9E701CF54
:102130004FF00A0BF9E75946FEF729F801F1300292
:1021400009F8012D0028F6D1ADEB090000F1200BB4
:10215000600701D44FF00108D84502DDA8EB0B0061
:1021600000E000208046002406E009A85246005DF9
:102170000D999047641C761C08988442F5DB04E0B6
:10218000302052460D999047761CB8F10001A8F115
:102190000108F5DC05E019F8010B52460D9990474E
:1021A000761CBBF10001ABF1010BF4DC6D1C34E7D4
:1021B000092801000A68531C0B601070704700006A
:1021C00013B54FF6FF73012269460248FFF704FA80
:1021D00000981CBD7800002008B5FEF7FBF9FFF75A
:1021E00009FBFEF721F8FFF7D1FBFFF7B3FB194C12
:1021F00060780028FCD0002060701748FDF7C0FF11
:1022000001461548FDF7B1FFE078411CCBB2E37001
:10221000092800D30023E37010A00F4A0090143A5D
:102220000FA10D48FFF7B6FE0F4D01228021284671
:10223000FEF7BCF90848FDF7A3FF074982B201F198
:102240005000FFF72FFA002280212846FEF7AEF952
:10225000CEE7000004000020280000200D0A000046
:10226000257325642573000000000240030406085E
:102270000C101820300000000000000000010203D4
:102280000406070809000000000102030400000022
:102290000D0A55415254205072696E74662045787B
:1022A000616D706C653A2072657461726765742047
:1022B0007468652043206C69627261727920707263
:1022C000696E74662066756E6374696F6E20746FD4
:1022D0002074686520554152540D0A00FC22000804
:1022E0000000002014000000DC1F0008102300087C
:1022F00014000020B4050000EC1F000868FF1F0058
:1023000000000000000000000000000000000000CD
:0400000508000125C9
:00000001FF
